:1000000043C05DC089C05BC05AC059C058C057C00A
:1000100056C055C054C053C052C051C050C05FCB31
:100020000AC95BC979C9A2C9D2C9E9C906CA46CAFF
:1000300047CAFFC864CA92CA95CAF9C8F6C818CB9D
:1000400039CB040309041603550053004200740021
:1000500069006E0079005300500049001201100140
:100060000000000881179F0C04010002030109022F
:10007000190001010080640904000001FF00000074
:10008000070581030800640011241FBECFE5D2E0FC
:10009000DEBFCDBF10E0A0E6B0E0ECE6F7E102C0C5
:1000A00005900D92A037B107D9F711E0A0E7B0E0B5
:1000B00001C01D92A839B107E1F71BD855CBA0CFDD
:1000C000A82FB92F80E090E041E050EA609530E041
:1000D00009C02D9182279795879510F08427952741
:1000E000305EC8F36F5FA8F30895EADF8D939D93A8
:1000F0000895A6E088279927AA9569F00197E1F36A
:10010000B399FCCFB39BFECF81E09927A6B30196AC
:1001100011F0A871D9F70895CF93CFB7CF93C395B6
:10012000B39BE9F7B39B0BC0B39B09C0B39B07C05C
:10013000B39B05C0B39B03C0B39B01C0D5C00F9256
:10014000DF93C0916A01DD27CF58DE4F012EB39BAC
:1001500003C0DF910F90E6CF2F930F931F934F9320
:100160002FEF4F6F06B303FB20F95F933F9350E0EF
:100170003BE065C016B30126502953FDC89556B320
:10018000012703FB25F92F7306B3B1F05027102781
:1001900013FB26F906B22230F0F000C016B3012797
:1001A00003FB27F90126502906B22430E8F54F77E2
:1001B000206816B30000F6CF50274F7D206206B2AC
:1001C000102F000000C006B300265029102713FB93
:1001D00026F906B2E2CF4F7B06B3206400C0DACF27
:1001E00001265029187106B269F14E7F2160012F56
:1001F00016B328C0002650294D7F06B22260102F6A
:1002000029C0012650294B7F06B22460012F2DC042
:1002100016B301265029477F2860000006B22EC081
:100220004F7E06B3206130C0422706B349930026B3
:100230005029102706B24FEF13FB20F9297F16B380
:1002400079F2187159F10126502906B2012703FBF2
:1002500021F9237F06B371F2002650293150D0F0E6
:1002600006B2102713FB22F9277E16B351F201269E
:100270005029012703FB06B223F92F7C49F2000025
:1002800006B3102713FB24F90026502906B22F7954
:1002900039F270CF10E21ABF002719C03B503195D8
:1002A000C31BD04010E21ABF0881033C09F10B3494
:1002B000F9F0209168011981110F1213EDCF4A81D5
:1002C000441F093651F10D3211F0013E29F7009318
:1002D0006F013F915F914F911F910F912F91DF918E
:1002E0000F90CAB7C5FD1BCFCF91CFBFCF91189547
:1002F00020916F01222369F310916D01112379F58B
:1003000034307AF130936D012093690110916A01C4
:100310003BE0311B30936A0124C000916D01013034
:10032000F4F40AE54F7049F43091600034FD1AC0CE
:1003300000936000C1E5D1E019C030915C0134FD4B
:1003400011C000935C01CDE5D1E010C0052710E09D
:1003500000C021C0052710E0C89508BB14C03AE5CD
:1003600001C032ED032EC0E0D0E032E017B31861D7
:10037000C39A08B317BB58E120E84FEF20FF0527C9
:1003800008BB279517951C3F28F700004552B0F78A
:1003900020FF0527279508BB17951C3FB8F6299124
:1003A0003A9561F7077E10916E01110F08BBC2509C
:1003B000D04011F01093680110E21ABF086017B323
:1003C000177E402F477E54E05A95F1F708BB17BBC4
:1003D00048BB7FCF1F93CF93DF9360916D01635034
:1003E00067FDB7C080916A01CCE0D0E0C81BD1099D
:1003F000CF58DE4F809169018D3209F098C0683086
:1004000009F0A5C083EC809351018AE580936000D8
:10041000109270008881807631F0CE016AD28F3FD1
:1004200009F474C07AC09A8110925A018981882394
:1004300031F410925B012AE531E082E062C0853040
:1004400019F490936E015AC0863009F041C08B8137
:10045000813049F48CE590E090936C0180936B01BE
:1004600090E482E132C0823049F48EE690E09093CD
:100470006C0180936B0190E489E127C0833019F50A
:10048000992349F482E490E090936C0180936B018E
:1004900090E484E01AC09130B1F0923049F486E4DF
:1004A00090E090936C0180936B0190E486E10DC025
:1004B000933049F484E690E090936C0180936B0153
:1004C00090E088E002C090E480E09093700025C046
:1004D000883069F0893019F4909370010FC08A3028
:1004E00049F08B3059F48BE480935D0107C020E71D
:1004F00031E002C02AE531E081E003C02AE531E0C5
:1005000080E030936C0120936B0107C0988197FDC8
:100510008E8190E89093700007C09F81992321F409
:100520009E81981708F4892F8093610010C08091F4
:10053000700087FF0CC0CE0171D18F3F21F48EE196
:100540008093600004C0882311F010926100109223
:100550006D018091600084FF5BC0809161008F3FDE
:1005600009F456C0182F893008F018E0811B8093D9
:1005700061008091510198E88927809351011123EE
:10058000B1F18091700087FF08C082E591E0612F92
:1005900024D1182F8930B0F52AC020916B013091F9
:1005A0006C01412F415086FF0EC050E0EA01CD5A48
:1005B000DE4FF901A2E5B1E084918D933196AC173D
:1005C000BD07D1F70CC0D90150E0CA018D5A9E4F2A
:1005D000E2E5F1E06D916193E817F907D9F74F5F14
:1005E0005F4F420F531F50936C0140936B0182E5A4
:1005F00091E0612F7ADD1C5F1C3041F08FEF80931A
:10060000610004C08FEF809361001EE110936000D1
:1006100084E196B3987131F48150D9F710926E014C
:1006200010926801C1E08111C0E0809171008C17C7
:1006300029F0CC2309F4B5D3C0937100DF91CF9199
:100640001F910895AC9A8BB780628BBF8BE4809327
:100650005D018AE580935C010895FC0150916E0074
:10066000862F972FDC0194E0619128E030E040E88C
:1006700080E0742F762309F0C09A052E00C0000098
:10068000000000000A94D1F7C29A052E00C00000B5
:10069000000000000A94D1F7880FB1998F5FC098CD
:1006A000C29846952150304021F78D939150E1F644
:1006B000089580914301909144019C012F5F3F4F29
:1006C00030934401209343012091450127FF02C04C
:1006D000880F991F2093490180FF03C02860209351
:1006E0004901292F269520934A0196958795809355
:1006F0004B0189E491E06DE471E0AFDF0895B99AB0
:1007000024E030E0E1E09E2F982321F098B39C7F15
:10071000926002C098B39C7F98BBEE0F90E005C03A
:1007200045E04A95F1F700C09F5F692F70E0409166
:100730006C0050916D006417750790F3C09A90E0BB
:1007400005C045E04A95F1F700C09F5F692F70E052
:1007500040916C0050916D006417750790F3215023
:10076000304089F688B38C7F88BB0895B99A28E019
:1007700030E0E1E09E2F982321F098B39C7F9260B7
:1007800002C098B39C7F98BBEE0F90E005C045E097
:100790004A95F1F700C09F5F692F70E040916C00AF
:1007A00050916D006417750790F3C09A90E005C0F2
:1007B00045E04A95F1F700C09F5F692F70E04091D6
:1007C0006C0050916D006417750790F32150304014
:1007D00089F688B38C7F88BB0895EF92FF921F93B0
:1007E000DF93CF930F92CDB7DEB7182F862F412F0F
:1007F000592F7A0108C089835CDF90915001F7017D
:1008000091937F0189819E2D911B9817A0F30F90E2
:10081000CF91DF911F91FF90EF900895DF92EF92BB
:10082000FF920F931F93CF93DF93F82ED62E0F2DA9
:10083000192F50E6E52E32C0F80181918F01809387
:100840004C0137DF809149018E2580934901C0E03A
:10085000D0E01DC089E491E06DE471E0FEDE80919E
:10086000500190914C01891741F4909141018917F1
:1008700021F090914201891789F420916E0030E0B7
:1008800045E0220F331F4A95E1F7C20FD31F209195
:10089000460130914701C217D307E0F2802F8F192C
:1008A0008D1550F281E0DF91CF911F910F91FF9054
:1008B000EF90DF900895FC0188B3942F90959823D2
:1008C00088B3842B12C0219138E088BB220F3A955F
:1008D00000C008F098BB00C0000098BB21F000C029
:1008E00000C000C0F2CF615070406115710559F72A
:1008F0000895CF93DF93EC014981442341F481E2D1
:100900008983D0936C01C0936B0188E047C241306A
:1009100011F486B308C16A81423011F468BB3DC24C
:100920000296762F777021E030E0072E02C0220F6A
:10093000331F0A94E2F7522F433029F488B35095BD
:10094000582358BB2AC2443019F488B3822B8EC076
:10095000453049F460936E00B99887B3856287BBD0
:1009600088B3887D83C0463049F4B898C098B99858
:10097000C198BA98C298BD98C5980FC2473041F443
:10098000BE016BDED0936C01C0936B0184E006C2A4
:10099000483031F4609341018B8180934201FDC165
:1009A0008C819D819093440180934301493011F4DF
:1009B00080E211C04B3011F480EA0DC08A819B8126
:1009C00090934701809346014A3011F480E403C0BC
:1009D0004C3029F480EC809345018FEFDFC14D301E
:1009E00029F487B32095282327BBD7C14E3021F4A3
:1009F00087B3822B87BBD1C14F3009F5662329F419
:100A00008091480187B9A59A0CC0613031F480917A
:100A10004801816087B9A29A04C0623011F48FE85E
:100A200087B9369A3699FECF84B1888385B1898398
:100A3000D0936C01C0936B0114BA82E0AFC1403116
:100A400059F4B89AB99A8AB5806A8ABD8AB5836022
:100A50008ABD83B7856038C0413121F469BD8C817E
:100A600088BD9BC1423121F488B3822B88BB95C1DC
:100A7000433129F488B32095282328BB8EC1443103
:100A800051F486B390E08223932302C09595879515
:100A90007A95E2F748C0463169F5662319F483B7C1
:100AA0008B7F24C0613031F483B78B7F83BF83B7E2
:100AB000826013C0623051F483B78B7F83BF83B7EA
:100AC000826083BF83B7816083BF67C1633049F4AD
:100AD00083B7846083BF83B78D7F83BF83B78E7FE7
:100AE000F3CF643009F059C183B7846083BF83B703
:100AF0008D7FE7CF4F3149F49B8180E0860F911DB8
:100B000090936D0080936C0048C1403219F41ABC78
:100B100013BE43C1413221F46093900181E0FBC0D8
:100B2000423241F483E18883D0936C01C0936B011E
:100B300081E034C14332D9F4379A86B19A81892B46
:100B400086B98B81813049F0813020F0823009F004
:100B500024C107C01092480120C1809148018068DB
:100B600003C08091480180698093480116C14832D2
:100B700049F487E891E090936C0180936B01809138
:100B80008F010CC1493211F482E0C5C04A3211F420
:100B900083E00BC04B3211F484E0BDC04C3211F441
:100BA00088E0B9C04D3239F489E0809372008A81BF
:100BB00080939001F2C04E3259F48BE08093720022
:100BC0008A81809390018B81809391018C8134C0C4
:100BD0004F3259F4613031F4B89AB99ABA9A6093A5
:100BE0004001DBC010924001D8C0403349F460930B
:100BF00078008B81809379008C8180937A00CDC0BE
:100C0000413329F46093730010927400C6C04233DC
:100C100011F485E080C0433321F46093900186E0B5
:100C20007AC0443361F4609372008B8180939001A9
:100C30008C81809391018D8180939201AEC0453368
:100C400069F4609390018B81809391018C818093F2
:100C500092018D818093930180E15DC0463371F5EF
:100C600065FF1BC080917E00803CB8F4E82FF0E067
:100C7000E058FF4F9B8190838F5FE82FF0E0E058B2
:100C8000FF4F9C8190838F5FE82FF0E0E058FF4F8B
:100C90009D8190838F5F80937E008A8184FF7DC0D9
:100CA00080917E00882309F478C081E180937200EE
:100CB00087B3852B87BB50937F006FC04733A1F468
:100CC000809162009091630041D580916200909183
:100CD000630001966B813AD5809162009091630028
:100CE00002966C8133D559C0842F90E0807F90703C
:100CF000803D910599F44770409390018A818093DB
:100D000091018B81809392018C81809393018D81DD
:100D1000809394018EE0809372003FC0803E9105E5
:100D2000E9F48AE080937200842F877080939001A9
:100D300048704093910120E00CC0822F90E0029611
:100D4000FE01E80FF91F308180579E4FFC01308370
:100D50002F5F80919001281780F31FC0803F91057D
:100D6000E1F487E080937200842F88708093900173
:100D700047704093910120E00CC0822F90E00296D2
:100D8000FE01E80FF91F308180579E4FFC01308330
:100D90002F5F80919101281780F380E0DF91CF9140
:100DA0000895DF92EF92FF920F931F93CF93DF93FB
:100DB000C8E0D0E0FF2460E8E62EDE2CDF0CD1BED8
:100DC00098D9082F192F89E0043318070CF4FD2C4B
:100DD000E694219791F78F2D815081BFCF2DD0E0E0
:100DE000219610C086D98453994097FF03C09095EF
:100DF00081959F4F8017910714F4F1B68C0181B74C
:100E00008F5F81BF81B790E0C817D9075CF7F1BE4B
:100E100061B780E090E09AD4DF91CF911F910F915C
:100E2000FF90EF90DF900895882311F0B89801C0EB
:100E3000B89A90E005C025E02A95F1F700C09F5FC1
:100E4000492F50E0209173003091740042175307EE
:100E500090F3BA9890E005C025E02A95F1F700C01C
:100E60009F5F492F50E0209173003091740042172A
:100E7000530790F3BA9A90E005C025E02A95F1F760
:100E800000C09F5F492F50E02091730030917400A3
:100E90004217530790F38111B89A40E005C085E0EE
:100EA0008A95F1F700C04F5F242F30E080917300E6
:100EB000909174002817390790F30895B89840E08E
:100EC00005C025E02A95F1F700C04F5F242F30E0E0
:100ED00080917300909174002817390790F3BA98A5
:100EE00040E005C085E08A95F1F700C04F5F242FF0
:100EF00030E080917300909174002817390790F3C7
:100F000086B390E005C025E02A95F1F700C09F5F09
:100F1000492F50E02091730030917400421753071D
:100F200090F3BA9A90E005C025E02A95F1F700C049
:100F30009F5F492F50E02091730030917400421759
:100F4000530790F38170089588B38A7F88BBBA985D
:100F5000B89840E005C085E08A95F1F700C04F5F82
:100F6000242F30E080917300909174002817390786
:100F700090F3089587B38A7F87BB40E005C085E082
:100F80008A95F1F700C04F5F242F30E08091730005
:100F9000909174002817390790F3B89A40E005C083
:100FA00085E08A95F1F700C04F5F242F30E08091F3
:100FB0007300909174002817390790F3BA9A40E0B3
:100FC00005C085E08A95F1F700C04F5F242F30E01F
:100FD00080917300909174002817390790F3089559
:100FE000B89A40E005C085E08A95F1F700C04F5FF0
:100FF000242F30E0809173009091740028173907F6
:1010000090F3BA9A40E005C085E08A95F1F700C0F8
:101010004F5F242F30E08091730090917400281767
:10102000390790F3BA9840E005C085E08A95F1F75A
:1010300000C04F5F242F30E08091730090917400C6
:101040002817390790F3B89840E005C085E08A95E5
:10105000F1F700C04F5F242F30E080917300909132
:1010600074002817390790F30895CF93DF93D82F92
:10107000C8E08D2F8078D8DEDD0FC150D1F71EDF9C
:10108000DF91CF9108951F93CF93DF93182FD8E06E
:10109000C0E0CC0F13DFC82BD150D9F780E005C0DA
:1010A00095E09A95F1F700C08F5F482F50E02091AE
:1010B0007300309174004217530790F3112311F01D
:1010C00080E001C081E0B0DE80E005C095E09A9547
:1010D000F1F700C08F5F482F50E0209173003091EE
:1010E00074004217530790F38C2FDF91CF911F911B
:1010F0000895DF92EF92FF920F931F93CF93DF93A8
:1011000080E287BB88BB80E090E018D38F3F09F076
:1011100081BFC0916200D0916300CE010FD3082F30
:10112000CE0101960BD3182FCE01029607D30053A0
:101130000A3030F410531A3018F480538A3088F093
:10114000CE0165E303D38091620090916300019624
:1011500061E3FCD28091620090916300029662E3A9
:10116000F5D2C0916200D0916300CE01E7D28093A6
:10117000660010926700CE010196E0D208E610E00A
:1011800080936800F8011182CE010296D7D2809335
:101190006A00F8011382BB9A84E1E2EBF1EF319728
:1011A000F1F700C000008150C1F7BB9885E090E0E6
:1011B000909374008093730010926D0010926C00F5
:1011C0002EE088E190E00FB6F894A89581BD0FBE9F
:1011D00021BD109275001092760010927700109247
:1011E00078001092790010927A0010927B00109291
:1011F000720028DA7894B898C098B998C198BA98CB
:10120000C298BD98C598BBE1EB2EAAE1FA2E10E476
:1012100000E8A895DFD8E0917200F0E0E231F10536
:1012200008F05BC2E15FFF4F099460E017C2C0E0C5
:10123000CFC1C0E057C1B89AB998BA9AC29A109271
:1012400087018091900180937C0000937D003FC0D6
:10125000C09840E005C0F5E0FA95F1F700C04F5F97
:10126000242F30E080916C0090916D002817390791
:1012700090F380917D0090917C00892309F0C09AC1
:10128000C29880918701880F809387012091870100
:1012900086B390E08270907095958795280F209383
:1012A000870140E005C025E02A95F1F700C04F5FB7
:1012B000242F30E080916C0090916D002817390741
:1012C00090F3C29A80917D00869580937D008091F5
:1012D0007D00882309F0BCCF1DC0BA9AC2988BEB61
:1012E00097E00197F1F700C000009FB7F894C29A09
:1012F000E0E2F1E03197F1F700C0BA9881E0B299ED
:1013000080E0809387019FBF8BE996E00197F1F71A
:10131000BA9AC29A81E0A9C18091900180937D0020
:10132000BA9A88E02FB7F894C29890917D0090FF08
:101330000BC091E29A95F1F7C29AE7E0F1E031979C
:10134000F1F700C0000009C0E7EFF0E03197F1F7D6
:101350000000C29AF7E3FA95F1F790917D00969517
:1013600090937D002FBF8150E9F6B7C1109287019D
:1013700028E080918701869580938701BA9A3FB7CC
:10138000F894C29881E28A95F1F7C29A97E39A9508
:10139000F1F7BA9886B390E0847090709595879530
:1013A0009595879580937D003FBFE2EEF0E0319701
:1013B000F1F700C0000080917D00882329F0809122
:1013C0008701806880938701215099F6A3CFBA9A4C
:1013D0002FB7F894C298F1E2FA95F1F7C29A87E331
:1013E0008A95F1F7BA9886B390E0847090709595DD
:1013F000879595958795809387012FBF8BCFBA9A54
:101400008FB7F894C2989091900190FF0BC091E231
:101410009A95F1F7C29AE7E0F1E03197F1F700C051
:10142000000009C0E7EFF0E03197F1F70000C29A41
:10143000F7E3FA95F1F78FBF50C1B99AB898BA9A05
:10144000C298E0927C00FDB8809190018111C5980E
:1014500010927D0026C0F0E0EE56FE4F80818FB9DD
:101460001EB980917C008DB940E005C025E02A9529
:10147000F1F700C04F5F242F30E080916C00909115
:101480006D002817390790F3769BEBCF80917D0094
:10149000E82FF0E09FB1E957FE4F90838F5F809374
:1014A0007D00E0917D0080919101E817A0F280918C
:1014B00090018111C59AE0938F010FC145DD0DC1E7
:1014C00080E090E057DD80919001CFDD80937D003A
:1014D00013C0EC2FF0E0EE56FE4F8081C6DD809306
:1014E0007D00CF5F80919001C81798F380919101A2
:1014F000811176DD80917D00809387010BCF8091F3
:101500009001882311F4DD241EC0DD2404C081E095
:10151000BADD8883D3942D2D30E08091910190E045
:101520000197E901C957DE4F2817390784F380E096
:10153000AADD88830CC0CD2DD0E081E0A4DDC957A1
:10154000DE4F8883D39480919101D816A0F38091C7
:101550009201882309F487C043DD85C08091910101
:10156000CED8BBC040919101B99A25C088B38C7F79
:1015700088BB415050E005C085E08A95F1F700C076
:101580005F5F252F30E080916C0090916D002817EF
:10159000390790F3C09A50E005C095E09A95F1F7AD
:1015A00000C05F5F252F30E080916C0090916D004E
:1015B0002817390790F34423C9F688B38C7F88BB7A
:1015C0008CC0EC2FF0E0EF56FE4F8081CFD8CF5F7C
:1015D00080919001C817A8F380C0B998C19A88E09B
:1015E00090E071E030C0F5E0FA95F1F700C0EF5FF0
:1015F0004E2F50E020916C0030916D004217530740
:1016000090F3C09AE0E005C025E02A95F1F700C00C
:10161000EF5F4E2F50E020916C0030916D0042172B
:10162000530790F330917D00B19B04C0372B30936A
:101630007D0005C0272F2095232320937D00C0988F
:10164000770F019711F0E0E0D3CFC198E62FF0E0DB
:1016500080917D00E957FE4F80836F5F80919101FB
:10166000681708F4BACF8091910180938F0135C03B
:1016700080E045D88091910179D88091920176D807
:101680008091930173D810927D000DC080E037D80F
:1016900080E06CD880E06AD880E068D880917D00D6
:1016A0008F5F80937D008091900190917D009817CD
:1016B00068F313C08CE190E10197F1F700C00000DE
:1016C000CFB7F89460917E0080E890E070E04091A0
:1016D0007F00F1D810927E00CFBF109272008091EF
:1016E0004001882309F495CD80917B00882369F41B
:1016F0009091780090937500909179009093760086
:1017000090917A009093770015C09091750098178A
:1017100010F4C09801C0C09A90917600981710F408
:10172000C19801C0C19A90917700981710F4C2989F
:1017300001C0C29A8F5F80937B006BCDE199FECF91
:101740009FBB8EBBE09A99278DB30895262FE19910
:10175000FECF1CBA9FBB8EBB2DBB0FB6F894E29A8E
:0C176000E19A0FBE01960895F894FFCFA7
:10176C005AFF200008033500310032000A000A003D
:00000001FF
